:100000000C9446000C945D000C945D000C945D0013
:100010000C945D000C945D000C945D000C945D00EC
:100020000C945D000C945D000C945D000C945D00DC
:100030000C945D000C945D000C945D000C945D00CC
:100040000C945D000C945D000C945D000C945D00BC
:100050000C945D000C945D000C945D000C945D00AC
:100060000C945D000C945D000C945D000C945D009C
:100070000C945D000C945D000C945D000C945D008C
:100080000C945D000C945D000C945D0011241FBE67
:10009000CFEFD0E4DEBFCDBF11E0A0E0B1E0E4E9F6
:1000A000F1E000E00BBF02C007900D92AE30B10747
:1000B000D9F70E9488000C94C8000C940000CF93DC
:1000C000DF9300D01F92CDB7DEB789837B836A832D
:1000D00089818A3031F48A819B81BC018DE00E9444
:1000E0005F0080EC90E0FC018081882F90E08072BE
:1000F0009927892BB1F386EC90E02981FC012083BC
:1001000080E090E00F900F900F90DF91CF910895D5
:10011000CF93DF9300D0CDB7DEB781E290E0FC0152
:10012000108282E290E02FEFFC01208384E290E0D5
:100130002FEFFC01208385E290E0FC0110821A82FF
:10014000198280E290E0FC01808183708A838A8139
:10015000882321F489818E7F898314C08A8181302C
:1001600021F48981816089830DC08A81823021F4E4
:1001700089818E7F898306C08A81833019F48981C1
:100180008E7F898385E290E02981FC012083D9CF8D
:04019000F894FFCF11
:0E01940000000002000000005F0000000000FC
:00000001FF
