:100000000C9446000C945D000C945D000C945D0013
:100010000C945D000C945D000C945D000C945D00EC
:100020000C945D000C945D000C945D000C945D00DC
:100030000C945D000C945D000C945D000C945D00CC
:100040000C945D000C945D000C945D000C945D00BC
:100050000C945D000C945D000C945D000C945D00AC
:100060000C945D000C945D000C945D000C945D009C
:100070000C945D000C945D000C945D000C945D008C
:100080000C945D000C945D000C945D0011241FBE67
:10009000CFEFD0E4DEBFCDBF11E0A0E0B1E0ECE3F4
:1000A000F2E000E00BBF02C007900D92AE30B10746
:1000B000D9F70E9488000C941C010C940000CF9387
:1000C000DF9300D01F92CDB7DEB789837B836A832D
:1000D00089818A3031F48A819B81BC018DE00E9444
:1000E0005F0080EC90E0FC018081882F90E08072BE
:1000F0009927892BB1F386EC90E02981FC012083BC
:1001000080E090E00F900F900F90DF91CF910895D5
:10011000CF93DF93CDB7DEB728970FB6F894DEBF45
:100120000FBECDBF81E290E0FC01108282E290E040
:100130002FEFFC01208384E290E0FC01108288E232
:1001400090E02FEFFC01208387E290E0FC01108219
:1001500082E290E02FEFFC0120838AE290E02FEF13
:10016000FC01208388E290E0FC0110821B821C824B
:100170001D8219821F821E821A82188680E290E0F8
:10018000FC0180818B8383E290E0FC0180818C8381
:1001900086E290E0FC0180818D838B81282F30E006
:1001A0008C81882F90E0280F391F8D81882F90E057
:1001B000820F931F9F838E838E819F818D3891053F
:1001C00020F089818160898303C089818E7F898342
:1001D0009B818D81891738F49B818D81F92FF81BC4
:1001E0008F2F8A830CC09B818D81981738F49D8155
:1001F0008B81292F281B822F8A8301C01A828A8132
:10020000813520F089818260898303C089818D7F57
:1002100089838E819F8196958795969587958C7F0A
:10022000888799818885892B89838BE290E0298151
:0C023000FC0120831982A2CFF894FFCFBC
:0E023C0000000002000000005F000000000053
:00000001FF
